:100000000C9419080C9460080C9460080C945E31F0
:100010000C9460080C9460080C9460080C946008C0
:100020000C9460080C9460080C94B8190C94741922
:100030000C9442270C9460080C9460080C9460089F
:100040000C9460080C9460080C9460080C94600890
:100050000C9460080C94911A0C9460080C9460083D
:100060000C9460080C9460080C9460080C94600870
:100070000C9460080C9460080C9460080C94600860
:100080000C9460080C9460080C9460080C94600850
:100090000C9460080C9460080C9460080C94600840
:1000A0000C9460080C9460080C94600805010980A9
:1000B000A101850319012AB700150126B700950192
:1000C00075108100C0050C0901A101850419012AE0
:1000D000A002150126A002950175108100C00660DE
:1000E000FF0961A1010962150026FF00952075082E
:1000F00081020963150026FF00952075089102C052
:1001000005010906A101050719E029E715002501E8
:10011000950875018102950175088101050719008F
:1001200029FF150026FF00950675088100050819AE
:10013000012905950575019102950175039101C08D
:1001400000000000000000000000000000000000AF
:10015000000000000000000000000000000000009F
:10016000000000007E0F00D4FFFFFFC700000078F2
:1001700000000000000000002A2B28000000000002
:100180000000000000000000000000290000000046
:100190002C1E3420212224342627252E362D3738B4
:1001A000271E1F202122232425263333362E3738BD
:1001B0001F0405060708090A0B0C0D0E0F1011127B
:1001C000131415161718191A1B1C1D2F3130232D47
:1001D000350405060708090A0B0C0D0E0F10111245
:1001E000131415161718191A1B1C1D2F3130354CF6
:1001F00000DA02815AD9F1DB20A4A62EAF00A0C0FC
:1002000000A1C800AED580A81FD300408D142000E7
:100210006432141E140A0500000000E0100808C82B
:10022000B08080808080808040403C14040890181A
:100230000408B040800000000000000102C4A4FCDB
:10024000000000008000000000000000000080C8E6
:1002500058282A100F000000000000000E090404B6
:10026000040402030201010202040810262B3204D6
:1002700005060000000000000000E01010F0000083
:1002800000000000000080808078280810203008DE
:10029000102040800000000000000304081011F945
:1002A0000101010101010000000000000000011037
:1002B000B05055201F0000000000000000000000AA
:1002C00001020C10202837021E2020180C141E01D9
:1002D000000000000000000000000000804020102E
:1002E000909090A0C0808080700814089010100832
:1002F000A478800000000000000000000708FC0156
:10030000000000008000000100000000000008184C
:10031000EA100F0000000000000000000000031CB5
:1003200020203C0F111F03061820203C0C121E0138
:1003300000000000000000000000000000804020DD
:100340002020408000000000E01028102020201015
:1003500048F0000000000000000000001F20F8022C
:100360000101010101010103000000000100103042
:10037000D5201F00000000000000000000003F200A
:10038000300C020509121E021C140810202C320128
:10039000000000000000000000000000000000005D
:1003A0000000000000E01C02050224040402A91E53
:1003B000E0000000000000000000000000E0100865
:1003C0006810080403000000000000000206827CA0
:1003D0000300000000000000000000000001020413
:1003E0000C1010202020283E1C20203E0F111F0042
:1003F00000000000000000000000000000000000FD
:100400000000000000E01C02050224040402A91EF2
:10041000E00000000000000000000000E09008186C
:10042000601008040300000000000000020E827C3F
:1004300003000000000000000000000000010204B2
:100440000C1010202020283E1C20203E0F111F00E1
:10045000000000000000000000000000008040409C
:10046000404080000000000000C04040800080400C
:1004700080000000000000000000001E21F00402C7
:1004800002020203020204040403010000090180C5
:1004900080AB04F8000000000000000000031C20F6
:1004A000203C0F111F0206182020380810180404E1
:1004B0000202010000000000000000000080404037
:1004C000408000000000000000E0A0204080C0202C
:1004D00040800000000000000000003E41F00402E7
:1004E00002020302020204040201000000040040B0
:1004F0004055827C0000000000000000003F2030DA
:100500000C020509121E04181008102028340602D7
:100510000101000000000000C02010D030000000E9
:10052000000000008080403C14040890180408B0CB
:1005300040800000000000000304081011F90101D0
:10054000010101010000000000000080C848282AC5
:10055000100F000000000000000000000000010279
:100560000C102028370202040810262B320405063E
:100570000000000000000000E01010F0000000008B
:1005800000000000808040402C14040890180408EB
:10059000B0408000000000000304081011F90101C0
:1005A00001010101000000000000000080C0482897
:1005B0002A100F204A09100000000000000001026C
:1005C0000C102028370202040810262B32040506DE
:1005D0000000000000000057504D3A2000000000CD
:1005E0000000000000000000C0204080808040200B
:1005F000C00000000000000000000000000000003B
:100600000000000000E01C030004001008100004BB
:1006100000031CE0000000000000000000000000DB
:10062000000000007E81000000E000C00000C0006B
:10063000E00000817E404834847800000000000023
:100640000000000000000101010302030101030298
:10065000030101010101010100000000000001018E
:100660000101010101010102020202020202020271
:100670000303030303030303040404040404040541
:100680000505050506060606060707070707080805
:100690000808090909090A0A0A0B0B0B0C0C0C0DB6
:1006A0000D0D0E0E0E0F0F0F10101111111212134F
:1006B000131414151516161717181819191A1A1BCA
:1006C0001B1C1D1D1E1E1F20202122222324242529
:1006D0002626272829292A2B2C2D2D2E2F30313262
:1006E00032333435363738393A3B3C3D3E3F404172
:1006F00042434445464748494A4C4D4E4F5051535A
:1007000054555658595A5B5D5E5F61626465666810
:10071000696B6C6D6F7072737577787A7B7D7E8094
:1007200082838587888A8C8E8F91939596989A9CE0
:100730009EA0A2A3A5A7A9ABADAFB1B3B5B7BABCF4
:10074000BEC0C2C4C6C9CBCDCFD1D4D6D8DBDDDFC5
:10075000E2E4E7E9EBEEF0F3F5F8FAFDFF1C100434
:10076000010D190A24232221201F1E1D1B1A1817F0
:100770001615141312110F0E0C0B090807060503AA
:1007800002002D3945483C303F25262728292A2BB1
:100790002C2E2F31323334353637383A3B3D3E40FC
:1007A000414243444647492223252628292A2C2D05
:1007B0002F3032333536383A3B3D3E404243454791
:1007C000494A4C4E5051535557595A5C5E606264C9
:1007D0006668696B6D6F71737577797B7D7F8183D7
:1007E0008587898A8C8E90929496989A9C9E9FA1D8
:1007F000A3A5A7A8AAACAEAFB1B3B4B6B8B9BBBCF9
:10080000BEBFC1C2C3C5C6C7C9CACBCCCDCED0D16D
:10081000D2D2D3D4D5D6D7D7D8D9D9DADADBDBDB65
:10082000DCDCDCDCDCDDDDDDDDDCDCDCDCDCDBDB06
:10083000DBDADAD9D9D8D7D7D6D5D4D3D2D2D1D05A
:10084000CECDCCCBCAC9C7C6C5C3C2C1BFBEBCBB57
:10085000B9B8B6B4B3B1AFAEACAAA8A7A5A3A19FCF
:100860009E9C9A98969492908E8C8A898785838193
:100870007F7D7B79777573716F6D6B696866646274
:10088000605E5C5A5957555351504E4C4A49474542
:100890004342403E3D3B3A3836353332302F2D2CE3
:1008A0002A29282625232207087F0807003E5B4FB8
:1008B0005B3E003E6B4F6B3E001C3E7C3E1C0018B6
:1008C0003C7E3C18001C577D571C001C5E7F5E1C44
:1008D0000000183C180000FFE7C3E7FF00001824E1
:1008E000180000FFE7DBE7FF0030483A060E00265D
:1008F0002979292600407F05050700407F05253F0F
:10090000005A3CE73C5A007F3E1C1C0800081C1C97
:100910003E7F0014227F2214005F5F005F5F0006AD
:10092000097F017F00006689956A006060606060F1
:100930000094A2FFA2940008047E04080010207E08
:1009400020100008082A1C0800081C2A0808001E9D
:1009500010101010000C1E0C1E0C0030383E3830E9
:1009600000060E3E0E060000000000000000005FC2
:10097000000000000700070000147F147F1400240B
:100980002A7F2A1200231308646200364956205039
:1009900000000807030000001C2241000000412263
:1009A0001C00002A1C7F1C2A0008083E08080000C2
:1009B000807030000008080808080000006060002F
:1009C000002010080402003E5149453E0000427FCD
:1009D0004000007249494946002141494D33001801
:1009E00014127F10002745454539003C4A494931DA
:1009F0000041211109070036494949360046494955
:100A0000291E000000140000000040340000000017
:100A10000814224100141414141400004122140874
:100A2000000201590906003E415D594E007C121139
:100A3000127C007F49494936003E41414122007FF6
:100A40004141413E007F49494941007F090909016F
:100A5000003E41415173007F0808087F0000417F3C
:100A60004100002040413F01007F08142241007FE7
:100A700040404040007F021C027F007F0408107F3E
:100A8000003E4141413E007F09090906003E4151B7
:100A9000215E007F09192946002649494932000391
:100AA000017F0103003F4040403F001F2040201FC6
:100AB000003F4038403F006314081463000304788B
:100AC0000403006159494D4300007F414141000248
:100AD0000408102000004141417F0004020102048B
:100AE00000404040404000000307080000205454EC
:100AF0007840007F28444438003844444428003873
:100B00004444287F0038545454180000087E0902D9
:100B10000018A4A49C78007F080404780000447D99
:100B20004000002040403D00007F102844000000AD
:100B3000417F4000007C04780478007C080404783D
:100B400000384444443800FC182424180018242495
:100B500018FC007C08040408004854545424000481
:100B6000043F4424003C4040207C001C2040201CCA
:100B7000003C4030403C004428102844004C9090F9
:100B8000907C004464544C4400000836410000004E
:100B90000077000000004136080000020102040254
:100BA000003C2623263C000000000000004040409E
:100BB000F0F8F8FF38FFF8F83FF8F8FF38FFF8F8DA
:100BC000F040404000000000000080C0C0C0800035
:100BD00000C0C08000000080C0C000C0C000008015
:100BE000C0C00000000000C0C0C0C0C000C0C00045
:100BF00000000000000000000000000000000000F5
:100C000000000000000000000000000000000000E4
:100C100000000000000000000000000000000000D4
:100C2000000000000000C0F0F8FC3E1E06010000BD
:100C3000007F4141417F007F4141417F000080C0F2
:100C4000E07E5B4F5BFEC00000C000DCD7DEDEDE76
:100C5000D7DC00C000000000000000000000000021
:100C600000000000000000000000000000494949A9
:100C7000FFFFFFFFE0DFBFBF00BFBFDFE0FFFFFF01
:100C8000FF49494900000000001F3F6060E0BF1FAE
:100C9000007F7F071E381E077F7F007F7F0E1F3B70
:100CA000716000000000007F7F0C0C0C007E7E0055
:100CB0007F7E0303007F7E03037E7E03037F7E002F
:100CC0000F3E703C063C703E0F00327B49493F7E30
:100CD000007F7E0303001E3F69696F26000000004D
:100CE000000000000000030F1F3F3C787060000010
:100CF000007F4141417F007F4141417F00307B7F48
:100D00007830202030787F3B0003000F7F0F0F0FDB
:100D10007F0F000300000000000000000000000042
:100D200000000000000000000000000000010101C0
:100D3000070F0F7F0F7F0F0F7E0F0F7F0F7F0F0F9C
:100D40000701010100000000000000000000010197
:100D50000000000000000000000000000000000093
:100D60000000000000000000000000000000000083
:100D70000000000000000000000000000000000073
:100D80000000000000000000000000000000000063
:100D90000000000000000000000000000000000053
:100DA0000000000000000000000000000000000043
:100DB0000000000000000000000000000000000033
:100DC0000000000000000000000000000000000023
:100DD0000000000000000000000000000000000013
:100DE0000000000000000000AF00AE35001E001F34
:100DF0000020002100220000002B0014001A00082F
:100E000000150017008000390004001600070009D3
:100E1000000A000000E1001D001B0006001900058B
:100E2000008100A800E000E300E20001512800007A
:100E3000002D002700260025002400230000008448
:100E40005F130012000C0018001C004B003400332C
:100E5000000F000E000D000B000000E50038003709
:100E6000003600100011004E00E600E400E700022A
:100E7000512C00000000004600220001000100018A
:100E800000010000002900290014001A00080015C4
:100E90000001000A002B00040016000700090000F2
:100EA00000E100E1001D001B000600190001000127
:100EB00000E000E300E2000100280000003D002EF9
:100EC000000100010001000100000030002F0001BE
:100ED000005200010001004700010001004F0051D5
:100EE00000500001000000E60001000100010001C7
:100EF0000001004800E700E600E40001002C0001CA
:100F000000000001003A003B003C003D003E0000B4
:100F10000035001E001F00200021002200C95CB91E
:100F2000001E021F02200221022202000001002EE8
:100F3000002D002E022F022F02CA5CC25C010001AC
:100F40000001000100010000004400430042004194
:100F50000040003F00000045002700260025002437
:100F60000023000100310227022602250224022369
:100F7000020000010031003302370030002F000171
:100F80000001000100010001000100010000000952
:100F9000025B00030100A0FA090400000103010143
:100FA000000921110100012240000705810308000A
:100FB0000A090401000203000000092111010001D7
:100FC00022220007058203200001070503032000F9
:100FD00001090402000103000000092111010001C0
:100FE0002232000705840320000A120100020000DB
:100FF000000832FC87120200010200011E035300A8
:101000006F006C00610072006900750073005F0082
:1010100053006F0066006C006500000010034B0079
:10102000650079006800690076006500000004032F
:10103000090411241FBECFEFDAE0DEBFCDBF04B636
:1010400003FE27C08091880690918906A0918A06A8
:10105000B0918B068730904BA740B04BD1F41092E3
:1010600088061092890610928A0610928B0614BE8A
:1010700084B7877F84BF0FB6F894A89580916000ED
:10108000886180936000109260000FBEE0E0F8E39A
:10109000099512E0A0E0B1E0E2E5F8E602C00590B3
:1010A0000D92A631B107D9F726E0A6E1B2E001C062
:1010B0001D92A838B207E1F70E9469270C94F0331B
:1010C0000C940000E8EDF0E080818E7F8083109228
:1010D000E2001092DA001092E100A0EEB0E08C91F4
:1010E00081608C9380818F77808319BCA7EDB0E0FD
:1010F0008C918E7F8C9380818F7E808310926F067F
:1011000008952091E4003091E50095E6A901209131
:10111000EC00822F817020FF06C08091E80080FFE4
:1011200006C080E008952091E80022FD1AC0809159
:101130007D06882389F0853089F08091EB0085FD5C
:101140000FC02091E4003091E50042175307F9F2F7
:101150009150E1F684E0089582E0089583E00895D7
:1011600081E00895EF92FF920F931F93CF937C013C
:101170008B010E948108C82F811117C08091E8005F
:1011800085FD0BC08091E8008E778093E8000E9477
:101190008108882399F3C82F08C0F70181917F0146
:1011A0008093F1000150110949F78C2FCF911F91C5
:1011B0000F91FF90EF90089580917F0687FF13C0F5
:1011C0008091E80082FF06C08091E8008B778093D1
:1011D000E80004C080917D068111F2CF08958091CE
:1011E0007D068823D9F38091E80080FFF8CF8091B5
:1011F000E8008E77ECCF982F9093E900242F762F7C
:1012000050E0891731F07091EC002091ED00509181
:10121000F00021FD07C09F5F973071F78093E900D0
:1012200081E008953091EB003E7F3093EB003091E8
:10123000ED003D7F3093ED003091EB003160309355
:10124000EB007093EC002093ED005093F0002091A0
:10125000EE0027FDE0CF80E00895CF92DF92EF927D
:10126000FF920F931F93CF93DF93C8EDD0E0888157
:101270008F7E8883E7EDF0E080818160808384E069
:1012800082BF81E080936F0688818E7F888302EE23
:1012900010E0F80110821092DA0081EEC82ED12CF5
:1012A000F601108288818F7788838881806888839F
:1012B00088818F7D888319BC10927D0610927E06EE
:1012C00010927C0610927B0690EEE92EF12CF7012D
:1012D00080818B7F808388818160888342E060E0A9
:1012E00080E00E94FB08F60180818E7F8083F801F8
:1012F000808181608083808188608083F701808124
:101300008E7F8083888180618883DF91CF911F9158
:101310000F91FF90EF90DF90CF900895FC018091A6
:1013200085069091860686179707A0F061157105CE
:1013300029F49091E8009E779093E80090E0611581
:10134000710551F4911108C08091E80082FF34C00A
:1013500080E00895BC01F2CF80917D068823C1F121
:101360008530C1F18091E80083FD30C08091E800B4
:1013700082FDEACF8091E80080FFE1CF8091F30009
:101380002091F200382F6115710519F028303105D0
:1013900058F091E02830310509F090E02091E80004
:1013A0002E772093E800CBCF81918093F10061509C
:1013B00071092F5F3F4FE7CF80917D06882341F071
:1013C000853041F08091E80083FFBECF81E0089531
:1013D00082E0089583E00895089508950895809126
:1013E00072060895CF92DF92EF92FF922FB7F89492
:1013F000C0906806D0906906E0906A06F0906B068F
:101400002FBFA7019601261B370B480B590BCA01AA
:10141000B901FF90EF90DF90CF9008952FB7F89427
:10142000609168067091690680916A0690916B06DA
:101430002FBF089520916506309166062817390759
:1014400071F09093660680936506E0916306F091D3
:101450006406309721F00084F185E02D0994089509
:1014600020916106309162062817390771F0909338
:10147000620680936106E0916306F09164063097FE
:1014800021F00680F781E02D09940895CF93DF9332
:101490002091590630915A0629553440A901460F2A
:1014A000571F4130524020F060E072E0621B730B26
:1014B0004091570450915804FC01C901620F731FF9
:1014C000C1E0D0E08617970738F050935804409356
:1014D0005704DF91CF9108952491DC01A75ABB4FA7
:1014E0003C91321781F02C939C01A5E0369527950D
:1014F000AA95E1F7DE0102C0AA0FBB1F2A95E2F709
:101500009D014A2B532B01963196DCCF209150043C
:1015100036E0839FC0011124629F800D911D11242C
:10152000811522E0920714F090E080E0875A9B4FEB
:1015300090935A06809359060895FC01680F791F0D
:101540008FEF91E32191822728E030E087FF09C0E7
:10155000880F892721503109C9F7E617F70791F756
:101560000895880FF7CFFA01811101C0FB0109949A
:10157000E9E6F3E01182828184608283089580919C
:101580004B04982F9E7F61F48170826080934B049E
:1015900080914E04853B18F084EB80934E040895AF
:1015A0008831B0F381708661F1CFAF92BF92DF9244
:1015B000EF92FF920F931F93CF93DF93082F162F75
:1015C000E901E42FF0E0E35AF94F611110C0E49112
:1015D0005E2F4E2F4983E8835A83DF91CF911F916D
:1015E0000F91FF90EF90DF90BF90AF900895E62E9F
:1015F000F12C4491D42EE42FF0E026E0829FC0012C
:1016000011242FEF30E0B9010E94D832802F90E0F2
:10161000880F991F55E5569FD001579FB00D112493
:101620008A1B9B0B982F990F890F5901AE18BF0881
:10163000AE9ED001AF9EB00DBE9EB00D11245B2FAB
:10164000189F80011124012F11275901A01AB10AF6
:10165000AE9E8001AF9E100DBE9E100D112459014B
:10166000A81AB108AE9CC001AF9C900DBE9C900D15
:101670001124892F9927281B390B2E9FC0012F9FDA
:10168000900D3E9F900D1124E92F62307105A1F05D
:1016900050F46115710509F49DCF6130710581F039
:1016A000EB2F512F97CF6430710569F080F06630D1
:1016B000710509F48FCFF4CFE42F4B2F592F8ACF28
:1016C000E42F412F87CFEB2F542F492F83CF4B2F60
:1016D0005D2DE12F7FCF80E0089578940895F894F0
:1016E000E82FE295EF70F0E031A1282F2F7081E014
:1016F00090E001C0880F2A95EAF7982F90959323E0
:1017000091A392A1892B82A30C946D0B9091FE0260
:1017100092FF06C0282F28712830F9F4877F846053
:1017200093FF06C0282F28712831F1F4877E846149
:101730002091FF0220FF06C0382F38713830D9F4CD
:10174000877F816021FF06C0282F28712831D1F4BE
:10175000877E816194FD877E0895282F247124302F
:10176000F9F68B7F8860DCCF282F2471243101F7B4
:101770008B7E8861DDCF382F3171313019F78E7F44
:101780008860E0CF282F2171213121F78E7E88617A
:10179000E1CFCF93DF93EC018238910581F1B0F571
:1017A0008133910509F491C020F58932910509F43E
:1017B00085C08A9709F490C0C11521E5D20708F0C9
:1017C000AAC0C11530E5D30708F0F2C0CF3BD10560
:1017D00008F089C0C83AD10508F0DFC0C53AD10584
:1017E00008F0D3C0C430D105F8F4C130D105E1F020
:1017F00040C08533910509F45AC0C997E9F6809134
:10180000FE02837089F0C0EED0E00EC0833E9105E9
:1018100099F170F4803E910501F1823E910561F6E7
:101820008091FE0282FD21C0CE01DF91CF9108950B
:10183000863E910561F1873E910571F1843E9105E7
:1018400009F0BACF8091FF0281FFEECF8091FE02B6
:10185000C7EED0E084FD0DC0E7CF8091FE0280FD91
:10186000F7C09091FF0290FFDFCFC3EED0E084FF7E
:10187000DBCFD0E0C0E0D8CF8091FE0282FDEBC08C
:101880009091FF0290FDBFCF84FFCECFF2CF809129
:10189000FE0283FDDDCFC8CF8091FE0283FDDEC056
:1018A0009091FF0291FFF0CFC4EED0E0BDCF8091C8
:1018B000FE0285FFB9CFC9E2D0E0B6CF8091FE022B
:1018C00085FFB2CFC5E3D0E0AFCF8091FE0286FFA7
:1018D000ABCFCAE2D0E0A8CF8091FE0286FFA4CFB2
:1018E000C1E3D0E0A1CFC11540E2D40760F4C11537
:1018F00081E0D80708F098CFCE01815E9109079763
:1019000008F492CFB6CFC11590E4D90708F4B1CF4F
:10191000DF70D06A89CFC11524E5D20778F4C115EC
:1019200033E5D30708F072C0C11542E5D40708F0CB
:101930005CC0DC2FCC27C16FD06A76CFC1158AE599
:10194000D80778F4C11599E5D90708F073C0C11517
:1019500028E5D20708F48DCFDC2FCC27C06FD06AE2
:1019600063CFCE0190568115904208F082CF8D2F23
:101970008F710E94860B90E0982F882788279F718F
:101980009C012C2BE901D0624FCFC55AD0E0C9553C
:10199000DE4FC881D0E0D06447CFC85AD0E0CC0F2A
:1019A000DD1FC655DE4F0990D881C02DD4643CCFD1
:1019B000CE0164E0969587956A95E1F783702C2FA8
:1019C00026952695237040E2249F90011124382B00
:1019D0008C2F8370C1E0D0E002C0CC0FDD1F8A9550
:1019E000E2F7C22BD32BDC681FCFCE01837099277F
:1019F00021E030E002C0220F331F8A95E2F7C6953E
:101A0000C69580E2C89FE0011124EBCFCE01837020
:101A1000992721E030E002C0220F331F8A95E2F7B8
:101A2000C695C69590E2C99FE0011124C22BD32B25
:101A3000DA68FACE8C2F8F700E94860B34E0D69530
:101A4000C7953A95E1F7CF709C2FEC01D069ECCEA9
:101A5000C9E3D0E0E9CEC2EED0E0E6CEC6EED0E0FB
:101A6000E3CE0C940E0A8091700690917902892B36
:101A700090917802892B80931802E0916306F0918F
:101A80006406309731F00280F381E02D88E192E026
:101A9000099408958091770290914602981301C0AD
:101AA00008958F5F8770FACF27E0929F800D1124F1
:101AB000982F977086958695869523E0829FF001F2
:101AC0001124EB5DFD4F50E040E080E0219130E0DB
:101AD000092E02C0369527950A94E2F72170332724
:101AE000042E01C0220F0A94EAF7822B4F5F5F4F4A
:101AF0004330510559F7089527E0929F800D112436
:101B0000982F977041E001C0440F9A95EAF78695A7
:101B10008695869593E0899FF0011124EB5DFD4F3A
:101B200090E080E070E05191DF0111979B01082E59
:101B300002C0369527950A94E2F721702195252752
:101B4000242325272C9301968330910561F708956E
:101B500090E080E00E94300A90E080E00E941A0A43
:101B600010927902109278020C94330D80937A02CD
:101B70000C94A80D882341F08095909170068923DC
:101B8000809370060C94330D0895882339F090915A
:101B90007006982B909370060C94330D089588234B
:101BA000B1F19CEF980F913A70F4EAE1F2E0919173
:101BB000891303C0DF0111971C9242E0E032F40761
:101BC000B1F70C94330D90E2980F983088F4877039
:101BD00021E030E0A90102C0440F551F8A95E2F7C9
:101BE000CA01809590917006892380937006E9CF91
:101BF0009BE5980F933020F490E080E00C94300A3D
:101C0000885A873120F490E080E00C941A0A0895F5
:101C10000F931F93CF93C82F882309F469C08CEFCB
:101C20008C0F813AB0F50AE112E080E292E0F8010F
:101C30002191C21701F122E0E032F207C9F7EFEF7C
:101C400080E0D8019D918D01C91781F0EF3F19F413
:101C5000911101C0E82F8F5F863099F7EF3F31F087
:101C60000E2E000CFF0BE85EFD4FC283CF911F913B
:101C70000F910C94330DEAE1F2E02191C21303C0FD
:101C8000DF0111971C928E179F07B9F70E94330D41
:101C9000D6CF80E28C0F883068F4C77021E030E046
:101CA00001C0220FCA95EAF780917006822B8093BB
:101CB0007006DCCFEBE5EC0FE33050F4F0E0E955D3
:101CC000FE4F808190E0CF911F910F910C94300ACC
:101CD000C85AC73168F4EC2FF0E0EE0FFF1FE6554D
:101CE000FE4F80819181CF911F910F910C941A0A20
:101CF000CF911F910F910895982F92959F7011F099
:101D0000892F94E0282F2695269511F09E5F822F2B
:101D1000869509F09F5F892F0895CF92DF92EF9209
:101D2000FF920F931F93CF93DF936C017B0164E6C7
:101D300070E088E70E94B52FEC0197FD12C010E01B
:101D400000E0F601E00FF11F849164E670E00E946C
:101D50002F30EC01892B29F40F5F1F4F0E151F0543
:101D600081F70E94B230CE01DF91CF911F910F9188
:101D7000FF90EF90DF90CF90089580915F06909153
:101D80006006911103C091E089270895882369F0C6
:101D900062E070E089EE9DE00E948D0E892B19F0C3
:101DA00080915F06089510925F0680915F06EBCFE9
:101DB000CF93C0915F06809160068823D1F00E9486
:101DC0000E0A6058774C8E4F9F4F60935B0670935E
:101DD0005C0680935D0690935E06C11108C062E0C8
:101DE00070E087EE9DE00E948D0E892B29F0C09156
:101DF0005F068C2FCF91089581E080935F06F7CF27
:101E000080936C0670936E0660936D0680917D06DC
:101E10008430F9F48093E9008FEF9091E8008150CD
:101E200095FD06C095ED9A95F1F700008111F5CF6B
:101E30008091E80085FF0DC050E040E063E070E075
:101E40008CE696E00E94B2088091E8008E7780933D
:101E5000E8000895BC0184E00C94000FBC0183E00D
:101E60000C94000FCF93DF93EC0181E08093E900A5
:101E70008FEF9091E800815095FD06C095ED9A9501
:101E8000F1F700008111F5CF8091E80085FF14C0C3
:101E900050E040E068E070E0CE010E94B20880911E
:101EA000E8008E778093E80088E0FE01A3E7B6E0C3
:101EB00001900D928A95E1F7DF91CF9108959F925D
:101EC000AF92BF92CF92DF92EF92FF920F931F9348
:101ED000CF93DF937C015B016A018091F90201E0FD
:101EE00010E08A3010F40AE010E0C1E0D0E0F8948D
:101EF000B501C701F6010995982E0E946D0B91104E
:101F000004C021960C171D076CF4892DDF91CF9129
:101F10001F910F91FF90EF90DF90CF90BF90AF9007
:101F20009F900895CC9F9001CD9F300D300D1124CE
:101F300090E080E045E34A95F1F7000001968217B2
:101F40009307C1F7D4CF8091C402811110C0809152
:101F5000D80080618093D8008AE18A95F1F700C0AB
:101F60008091D90080FF0AC081E08093C40281E0A3
:101F70009091C402913009F080E0089582E080934E
:101F8000C4020E94620810927D06F1CF0E94A30F46
:101F9000882351F0E0916306F0916406309721F0B8
:101FA0000190F081E02D099480E008950F931F9334
:101FB0000E94A30F882321F01F910F910C940E0A09
:101FC0000E940E0A0091FA021091FB022091FC027D
:101FD0003091FD02600F711F821F931F1F910F919F
:101FE00008951F93CF93DF93182FEB010E94080EE3
:101FF0008FE99FE00197F1F700C000002197C1F73A
:10200000812FDF91CF911F910C94CF0DCF93DF9350
:10201000C3EED2E060E0CE010E94BC332196C11530
:1020200084E0D807B9F7DF91CF9108956F927F923E
:102030008F929F92AF92BF92CF92DF92EF92FF92D8
:102040000F931F93CF93DF938BEEC82E8DE0D82E86
:1020500091ECE92EF12CE701CC58D10936011BC0D7
:10206000F50185909490692DC8010E94BC33682DBC
:10207000C80101960E94BC3382E0A80EB11C0E5F1D
:102080001F4FC017D10761F78EE0680E711C2E96A6
:10209000CE15DF0529F08E010E5011095301E0CF56
:1020A0007E018CE8E80EF11C8CE8C80ED11C8DE78F
:1020B000E81683E0F80679F6DF91CF911F910F9132
:1020C000FF90EF90DF90CF90BF90AF909F908F9058
:1020D0007F906F900895CF93C82F6FEF811162E2C8
:1020E00083E290E00E94BC336FEFC11167E084E2AD
:1020F00090E00E94BC336FEFC11169E285E290E08D
:10210000CF910C94BC3380E00E946B1060E086E2BB
:1021100090E00E94BC330E9416100E94061081E0DD
:102120000C946B100F931F93CF93DF93C42FD0E0C9
:10213000CC0FDD1F2EE0629FC00DD11D11243CE8A5
:10214000839FC00DD11D1124CE0187960E94A83314
:10215000082F10E0102F0027CE0188960E94A83388
:102160009801282BC901DF91CF911F910F910895FC
:10217000462F853038F47A3028F4673018F4672F0A
:102180000C94921090E080E00895CF92DF92FF923D
:102190000F931F93CF93DF936C010091870680917B
:1021A0007A02082BC7E0D0E010E0FC2EC8010C2E0C
:1021B00002C0959587950A94E2F780FD0CC021979F
:1021C000A0F7F12C8F2DDF91CF911F910F91FF90F0
:1021D000DF90CF900895B6018C2F0E94B8100E9416
:1021E000C90B019761F3EECFCF93DF93EC010E940F
:1021F000C510BE010E94B810DF91CF910C94C90B9D
:10220000FC01808191810E94F410292F2F709295FA
:102210009F7092509E3078F4E92FF0E0EE50FC4C25
:102220000C944D33803F19F020F4883E20F481E077
:102230000895843FE1F380E00895883EC0F3813F34
:10224000D1F7F5CF822F869586958695089583E2FE
:1022500090E00E94A833823289F484E290E00E94E8
:10226000A833873059F485E290E00E94A83391E0CA
:10227000893209F090E0892F8170089580E0FCCFC9
:10228000CF92DF92EF920F931F93CF93DF93CDB74F
:10229000DEB7CE5DD1090FB6F894DEBF0FBECDBF5D
:1022A00060917C0180914B0480FF4CC0EDE5F7E02C
:1022B0009E012F5F3F4F8E0101521F4FC901A49114
:1022C0004A2F50E0DA01AA0FBB1FA40FB51FA35974
:1022D000BC4FCD90DD90EC90D901CD92DD92ED9286
:1022E0009D013196A017B10751F720917B0143E082
:1022F000249F800D911D1124539A2BB1277F3BB150
:1023000038605FB7F894FC01649FE00DF11D112463
:10231000BF016817790749F55FBFEFE5F4E0319732
:10232000F1F700C00000C252DF4F0FB6F894DEBFD5
:102330000FBECDBFDF91CF911F910F91EF90DF9036
:10234000CF90089580917D0190917E0123E0829F3E
:10235000F0011124E359FC4F891708F0A7CF11822F
:10236000108212828F5F3396F7CFDC014D91CD0141
:10237000E8E03BB9000000C047FF2BB9440F000064
:1023800000C000C000C02BB900C0EA9591F7C1CFD2
:10239000EF92FF921F93CF93DF93EC0110E0EE24B6
:1023A000EA94F12C60917F01161770F00E944011A1
:1023B0009A818C8190FF2AC08F5F8C83DF91CF91AF
:1023C0001F91FF90EF90089520917D01422F410FC2
:1023D0005527551FCA019A01220F331F280F391F95
:1023E00023593C4F40914E04453B08F044EB70E0CC
:1023F000C7010E94F832962F8C8160914D04199F7D
:10240000800D11240E94D50A1F5FCCCF8150D5CFFB
:1024100090914B0490FF14C090917D0120917E011A
:1024200033E0939FF0011124E359FC4F921710F011
:102430000C9440118183608342839F5F3396F6CF73
:1024400008950F931F93CF93DF9300D00F92CDB7D2
:10245000DEB78C01DC011496EC91F0E0E955F84F01
:10246000449180914B0480FF11C0453B08F044EB40
:102470009E012F5F3F4F60914D0480914C040E945C
:10248000D50A4B8169818A810E940812F8018481F2
:102490008F5F84830F900F900F90DF91CF911F91EA
:1024A0000F910895EBE4F4E080818E7F80830E9499
:1024B000B80AE9E6F3E08281816082832FEF80E74A
:1024C00092E0215080409040E1F700C000000C9461
:1024D0004011EAE1F2E086E0DF011D928A95E9F71A
:1024E0000C94A80D1F93CF93DF93CDB7DEB7AA97B7
:1024F0000FB6F894DEBF0FBECDBF8FE796E02091F8
:10250000F100DC012D93CD01B6E087389B07B9F7C8
:1025100080918006833009F472C0B8F4813009F4E8
:1025200049C0823009F4B5C08091E80083FF8DC2B4
:1025300080917F06909180069A3008F086C2E92F3C
:10254000F0E0E050FC4C0C944D338A3009F490C01C
:102550008B3009F471C0893039F780917F06813260
:1025600019F78091830690918406009711F00297E5
:10257000D9F68091E800877F8093E8008091E80099
:1025800082FF38C09091F3008091F200029731F4FD
:102590008091F100813011F0863021F48091F100BA
:1025A000809372068091E8008B778093E8000E9408
:1025B000DC08BACF80917F06813A09F0B5CF8091CF
:1025C000E800877F8093E8008091830690918406DD
:1025D000892B61F468E083E796E070E00E948E0941
:1025E0008091E8008B778093E8009ECF60E090E0D8
:1025F00080E0F3CF80917D068111C0CF95CF80918F
:102600007F06813A09F090CF8091830690918406ED
:10261000892B09F089CF8091E800877F8093E800BB
:102620008091E80080FFFCCF809180018093F100D1
:102630008091E8008E77B9CF80917F06813209F0D2
:1026400073CF8091830690918406892B09F06CCF1B
:102650008091E800877F8093E8000E94DC088091E9
:10266000810680938001109270060E9469125CCFEF
:1026700080917F06813209F057CF8091E800877FF3
:102680008093E8000E94DC088091820680937106A6
:102690004BCF80917F06813A09F046CF8091E800C8
:1026A000877F8093E8008091E80080FFFCCF8091D5
:1026B0007106BCCF803899F0823809F0C6C180918C
:1026C00083068F70873008F0C0C18093E900809145
:1026D000EB0085FB882780F91092E90006C0809105
:1026E0007B0690917C06911182609091E800977F23
:1026F0009093E8008093F1001092F1008091E8003F
:102700008E779FC1882309F48DC1823009F09DC165
:1027100080918106811190C1809183068F702FEF87
:10272000280F263008F091C18093E9002091EB003A
:1027300020FF82C1933031F48091EB00806280935E
:10274000EB007AC19091EB0090619093EB0021E057
:1027500030E001C0220F8A95EAF72093EA00109238
:10276000EA008091EB008860EACF81116EC1109180
:1027700081061F778091E3008078812B8093E300AE
:102780008091E800877F8093E8000E94DC088091B8
:10279000E80080FFFCCF8091E30080688093E30035
:1027A00082E0111183E080937D064FC18058823012
:1027B00008F04BC120918106309182062C3DE3E068
:1027C0003E07A1F583E08A838AE289834FB7F894B4
:1027D000DE01139620E03EE051E2E32FF0E050935B
:1027E0005700E49120FF03C0E295EF703F5FEF7068
:1027F0008E2F90E0EA30C0F0C7968D939D932F5FA7
:10280000243159F74FBF8091E800877F8093E8001B
:102810006AE270E0CE0101960E948E098091E80084
:102820008B778093E80011C1C096E7CF8091830633
:1028300090918406432F55274330510509F44AC02F
:1028400078F54130510509F47AC08BE590E0EFE866
:10285000FFE04230510509F0F8C02091E800277FE1
:102860002093E80020918506309186068217930711
:1028700008F49C0140E02115310509F065C04111C3
:1028800063C08091E80082FDC9CF80917D068823D6
:1028900029F2853019F28091E80083FFF2CFBECF94
:1028A0004132510509F43CC04232510509F0CDC016
:1028B0008330910508F0C9C0FC01EE0FFF1FE75FF0
:1028C000FD4F0190F081E02D8A5F9D4FDC018C91DE
:1028D00090E01AC0332721303105D1F021153105A0
:1028E00061F02230310509F0B0C0ECEFFFE0E49177
:1028F0008E2F90E0ECEFFFE007C0EEE2F0E1E49114
:102900008E2F90E0EEE2F0E1009709F49EC0A5CF93
:10291000ECE1F0E1E4918E2F90E0ECE1F0E1F4CF16
:102920008330910508F091C0880F991FFC01E15F89
:10293000FD4F0190F081E02D89E090E08ECF82E1A3
:1029400090E0EAEEFFE089CF80917D06882309F4CC
:1029500065CF853009F462CF8091E80083FD5ECFBA
:102960008091E80082FD8DCF8091E80080FF83CFC9
:102970009091F3008091F2002115310519F0883013
:10298000910550F041E0089709F040E08091E8009F
:102990008E778093E8006FCF44914093F100319699
:1029A000215031090196E8CF803809F04EC080915E
:1029B000E800877F8093E80080917E068093F10095
:1029C0009DCE811142C0109181061230F0F58091A8
:1029D000E800877F8093E80010937E060E94DC0861
:1029E000112311F084E005C08091E30087FDFACF48
:1029F00081E080937D0642E061EC81E00E94FB086B
:102A000042E261EC84E00E94FB0842E261EC82E079
:102A10000E94FB0842E260EC83E00E94FB08809188
:102A20007D0613C080918106813079F481E0933076
:102A300009F080E080937C061092E9008091E80024
:102A4000877F8093E8000E94DC088091E80083FF84
:102A50000AC08091E800877F8093E8008091EB00B6
:102A600080628093EB00AA960FB6F894DEBF0FBE8B
:102A7000CDBFDF91CF911F9108951F93CF93DF9327
:102A8000162FC0915906D0915A068A30D1F4209160
:102A90005004CE0189559440622F70E00E94D832D4
:102AA000281B822F66E00E94EC32C82FC15020F410
:102AB000DF91CF911F91089560E080E20E943D1563
:102AC000F5CF8D30E9F4C955D44020915004622FE0
:102AD00070E0CE010E94D832281B822F9E01280F61
:102AE000311D2115324018F080E0D0E0C0E0C80F61
:102AF000D11DC75ADB4FD0935A06C0935906D8CF81
:102B000096E0FE01A1E5B4E001900D929A95E1F7FF
:102B1000803E90F186E0FE0111928A95E9F7C0911E
:102B20005906D0915A06111133C046E050E0BE015B
:102B300081E594E00E9492339E0129553440892B0F
:102B400091F52A5F3F4F40915004642F70E0C90116
:102B50000E94D832481B463010F4240F311D211535
:102B600072E0370710F030E020E0275A3B4F3093F7
:102B70005A06209359069CCFF6E08F9FB00111248E
:102B80006955774F46E050E0CE010E947C33C7CFB5
:102B90009E012A5F3F4FFE012E173F0731F28081D1
:102BA00080958193F9CFC90145E0969587954A951F
:102BB000E1F741E050E0BA0102C0660F771F8A9545
:102BC000E2F7CB016091570470915804862B972B44
:102BD000B9016B5F7F4FE5E076956795EA95E1F780
:102BE00002C0440F551F6A95E2F7842B952B9093F2
:102BF000580480935704A5CFFF920F931F93CF9350
:102C0000DF93EC01F62EFC0101900020E9F78F0123
:102C100001501109C017D10730F0DF91CF911F91FA
:102C20000F91FF9008956F2D89910E943D15F2CF6D
:102C3000CF92DF92EF92FF926B017C010E94BF0A5C
:102C4000B701A60188E090E0FF90EF90DF90CF9071
:102C50000C94CE33EF92FF920F931F93CF93DF9399
:102C600000D00F92CDB7DEB7082FF62E142FE22E2C
:102C700080914B0480FF3DC0E82FE695F0E0E650E0
:102C8000FE4F9081909369038E7F8230E1F5453B42
:102C900008F044EB9E012F5F3F4F6F2D802F0E9465
:102CA000D50A4B8169818A810E94081280914C0467
:102CB000801308C080914D048F1104C080914E0490
:102CC000811729F080916B03826080936B030093DE
:102CD0004C04F0924D0410934E04EE2051F060919C
:102CE0004B0470914C0480914D0490914E040E94CD
:102CF00018160F900F900F90DF91CF911F910F91A9
:102D0000FF90EF900895923019F410914E04CECFB9
:102D1000963061F600914C04C9CFEBE4F4E04381B6
:102D200028E0421B08F440E021E0628181810C949C
:102D30002A16EBE4F4E0438128E0420F08F44FEF59
:102D400021E0628181810C942A16EBE4F4E0628137
:102D500021E1621B08F460E021E0438181810C9451
:102D60002A16EBE4F4E0628121E1620F08F46FEFD0
:102D700021E0438181810C942A16EBE4F4E0818107
:102D800021E04381628188500C942A16EBE4F4E040
:102D9000818121E043816281885F0C942A168091B1
:102DA0004F04882319F0815080934F0460914B04A5
:102DB00070914C0480914D0490914E040C9418161F
:102DC00080914F04833018F48F5F80934F0460919B
:102DD0004B0470914C0480914D0490914E040C94DE
:102DE0001816EBE4F4E083E0808311828FEF828396
:102DF00084E6838384EB8483A9E6B3E012968C9106
:102E00001297836012968C93608171818281938185
:102E10000C94181669EE7EEF90E080E00E94DA33A1
:102E200060E082E090E00E94BC3360E083E090E0EC
:102E30000E94BC3310927A0260E084E090E00E942D
:102E4000BC3360E082E290E00E94BC3360E085E049
:102E500090E00E94BC3360E086E090E00E94BC33CA
:102E60006FEF87E090E00E94BC3340E050E0BA0191
:102E700088E090E00E94CE3360E08DE090E00E9418
:102E8000BC3340E050E0BA0188E190E00E94CE33CC
:102E900060E087E190E00E94BC3340E050E0BA017E
:102EA0008CE190E00E94CE3370E060E080E290E040
:102EB0000E94DA3340E050E0BA0188E190E00E94DD
:102EC000CE3380E00E946B100E94831040E050E0FF
:102ED000BA018FE090E00E94CE3340E050E0BA01AA
:102EE00083E190E00C94CE33CF93DF9300D000D0F9
:102EF000CDB7DEB76091E9027091EA028091EB02F2
:102F00009091EC020E94F2096436710581059105E9
:102F100068F10E94D60F6E5F7F4F8F4F9F4F69837E
:102F20007A838B839C8380912C0190912D018E520A
:102F30009D4F40912B0150E04530510510F044E089
:102F400050E0BE016F5F7F4F0E949F3384E090E0AE
:102F50000E942432892B61F40E940E0A6093E902D8
:102F60007093EA028093EB029093EC0281E001C03F
:102F700080E00F900F900F900F90DF91CF91089508
:102F8000BF92CF92DF92EF92FF920F931F93CF9356
:102F9000DF93B82EEB01F42E6901688179818A8173
:102FA0009B810E94F209643671058105910510F438
:102FB000FF2019F1EB2C0B2C000CFF088B2D9AE055
:102FC0008902F0011124EF5FFE4F838194818E52BC
:102FD0009D4F428150E00417150708F4A801B6017F
:102FE0000E949F33C7010E942432892B89F40E94DA
:102FF0000E0A688379838A839B8381E0DF91CF9176
:103000001F910F91FF90EF90DF90CF90BF900895A8
:1030100080E0F4CF0F931F93CF93DF930F92CDB740
:10302000DEB780915F0689832091E80290E041E05D
:103030002817190609F440E001E010E09E012F5F17
:103040003F4F65EF72E087E00E94C0170F90DF915D
:10305000CF911F910F9108950F931F93CF93DF93FB
:103060000F92CDB7DEB780912003898341E0909124
:10307000E702981301C040E001E010E09E012F5FDD
:103080003F4F61EF72E086E00E94C0170F90DF9122
:10309000CF911F910F9108950F931F93CF93DF93BB
:1030A000CDB7DEB729970FB6F894DEBF0FBECDBF00
:1030B00085E0EBE4F4E0DE01119601900D928A9533
:1030C000E1F78091690390916A03A0916B03B0913D
:1030D0006C038E839F83A887B98741E0888581111F
:1030E00001C040E009E010E09E012F5F3F4F6DEE10
:1030F00072E085E00E94C017811110926B0329963F
:103100000FB6F894DEBF0FBECDBFDF91CF911F91F8
:103110000F9108956F927F928F929F92AF92BF927C
:10312000CF92DF92EF92FF920F931F93CF93DF9393
:103130000F92CDB7DEB7862E5A016901682E880F2F
:103140007708C3010E942432892B09F07BC08AE0F2
:10315000869DF001879DF00D1124EF5FFE4F4581A4
:1031600050E04115510511F041E050E08AE0869DA4
:10317000F001879DF00D1124EF5FFE4F668177818E
:103180006E527D4FCE0101960E949F33F501608102
:103190007181828193810E94F209643671058105F3
:1031A000910540F4B701C8010E949D0A99818917D1
:1031B00009F44FC0082C000C9908C4010E94243265
:1031C000892B91F0B12C8B2D0F90DF91CF911F9116
:1031D0000F91FF90EF90DF90CF90BF90AF909F90B6
:1031E0008F907F906F9008958AE0889DF001899D6F
:1031F000F00D1124EF5FFE4F458150E0E416F50617
:1032000008F4A7018AE0889DF001899DF00D112442
:10321000EF5FFE4F668177816E527D4FC6010E943F
:103220009F33B701C8010E949D0A99818913CACFB3
:103230000E940E0AF5016083718382839383BB240D
:10324000B394C1CFB12CA701B801C6010E949F332E
:10325000BACFBB24B394F7CFCF92DF92EF92FF9215
:103260000F931F93CF93DF9300D000D00F92CDB771
:10327000DEB76B0185E0E82EF12C03ED12E09E0134
:103280002F5F3F4F4AEC52E061E080E00E948A18D5
:10329000882349F095E0FE013196A5ECB2E001905B
:1032A0000D929A95E1F795E0E5ECF2E0D6010190F8
:1032B0000D929A95E1F70F900F900F900F900F904D
:1032C000DF91CF911F910F91FF90EF90DF90CF9002
:1032D000089590E080E00E94B633893E9E4F11F43D
:1032E0000C94271180E008951F920F920FB60F9251
:1032F00011242F933F934F935F936F937F938F93FB
:103300009F93AF93BF93CF93DF93EF93FF93D091AE
:10331000E900DF708091EC00C82FC17080FDC0E82B
:103320001092E9008091F000877F8093F0007894FC
:103330000E9472121092E9008091F00088608093E0
:10334000F000CD2BCF70C093E900FF91EF91DF919A
:10335000CF91BF91AF919F918F917F916F915F912D
:103360004F913F912F910F900FBE0F901F90189586
:103370001F920F920FB60F9211242F933F934F93EA
:103380005F936F937F938F939F93AF93BF93EF93CD
:10339000FF938091E10082FF09C08091E20082FFEB
:1033A00005C08091E1008B7F8093E1008091DA007D
:1033B00080FF24C08091D80080FF20C08091DA0077
:1033C0008E7F8093DA008091D90080FF9DC080E1DC
:1033D00089BD82E189BD09B400FEFDCF81E0809303
:1033E0007D0680916F06811109C00E9462080E94CB
:1033F0002D098091E20084608093E2008091E100D9
:1034000080FF17C08091E20080FF13C08091E2002E
:103410008E7F8093E2008091E20080618093E200E1
:103420008091D80080628093D80019BC85E0809399
:103430007D068091E10084FF2BC08091E20084FF33
:1034400027C080E189BD82E189BD89B5982F91703F
:1034500080FFFBCF8091D8008F7D8093D800809132
:10346000E1008F7E8093E1008091E2008F7E809367
:10347000E2008091E20081608093E20080917E060C
:10348000882309F447C084E080937D0680917D06FF
:103490008091E10083FF27C08091E20083FF23C079
:1034A0008091E100877F8093E10082E080937D0638
:1034B00010927E068091E1008E7F8093E1008091E2
:1034C000E2008E7F8093E2008091E2008061809331
:1034D000E20042E060E080E00E94FB088091F000A2
:1034E00088608093F000FF91EF91BF91AF919F9121
:1034F0008F917F916F915F914F913F912F910F909D
:103500000FBE0F901F90189519BC10927D06109257
:103510006F0674CF8091E30087FD93E090937D0662
:10352000B5CF78941F921FB61F9211248F939F934B
:10353000AF93BF938091680690916906A0916A0647
:10354000B0916B060196A11DB11D80936806909302
:103550006906A0936A06B0936B06BF91AF919F91E5
:103560008F911F901FBE1F9018959C014FB7F89424
:103570008091680690916906A0916A06B0916B06E9
:103580004FBF821B930B08952FB7F8948091680664
:1035900090916906A0916A06B0916B062FBF0895BD
:1035A0000E94A30F81110C94C41A0E94D60FCB0164
:1035B000089560914B04669570E041E050E08AE721
:1035C00091E00E948533892B19F481E080936A038E
:1035D0000E94D01A909364038093630380916B03DD
:1035E000846080936B03089590914B0490FF3BC0DF
:1035F000917081112EC0926090934B0480916B0367
:10360000816080936B03662351F060914B0470914D
:103610004C0480914D0490914E040E9418166091C4
:103620004B04669570E041E050E08AE791E00E942B
:103630008533892BA9F00E94B80A81E08093660344
:1036400020E040914E0460914D0480914C040C9414
:103650002A168C3010F09661CFCF880F982BCCCFE4
:103660000E94D91AEACF089561E00C94F41A869565
:1036700081709091870621E09111292F20FF0CC0C5
:10368000882351F021E040914E0466EE85E00E94CF
:103690002A1685E00C94341B992319F087E092FDDB
:1036A000F9CF21E040914E0468EC89E10E942A168E
:1036B00081E0F0CF0F931F93CF93C82F482F50E096
:1036C00070E060E0DB01CA01F4E0B695A79597953C
:1036D0008795FA95D1F70097A105B10559F1AC018D
:1036E000BD0184E08A019B01E2E03695279517959C
:1036F0000795EA95D1F7011511052105310519F056
:103700008E5FB901A8017695679557954795452B2A
:10371000462B472B09F08F5F813071F08823A9F089
:10372000823019F487E00E94341B8C2FCF911F91B7
:103730000F91089580E0D6CF21E040914E0466EECF
:1037400083E20E942A1681E0EECF21E040914E04F0
:1037500068EC89E1F6CF0E945A1B809387060C948F
:10376000A80D80918706982F9670963019F488607E
:103770000C94AB1B877FFCCF21E030E001C0220F0F
:103780008A95EAF720958091870682230C94AB1BDB
:1037900021E030E001C0220F8A95EAF78091870688
:1037A000822B0C94AB1B80914B048695815009F4BD
:1037B0008BE061E00C94F41A80914B0486958F5F46
:1037C0008C3008F081E061E00C94F41A90914B0485
:1037D00090FF07C09695981720F0961710F40C9458
:1037E000DC1B0C94341B5F926F927F928F929F929E
:1037F000AF92BF92CF92DF92EF92FF920F931F93FF
:10380000CF93DF9300D000D00F92CDB7DEB76C011D
:10381000FC0183819481892B31F0808191818923FE
:103820008F3F09F002C50F900F900F900F900F90EF
:10383000DF91CF911F910F91FF90EF90DF90CF908C
:10384000BF90AF909F908F907F906F905F90089502
:103850000E94C510182F682F89819A810E947C0DC3
:1038600069817A81812F0E94B8108C01F601228132
:10387000222309F4D0C490568115F0E29F0750F03E
:10388000905E811530E1930728F0915C81159F418E
:1038900008F060C0C8019927AC0144505109443276
:1038A000510518F08B970E9740F4E0918602F0E0F6
:1038B000E557FD4F80818F5F8083C80182519F450E
:1038C000409708F07EC48FEF93E00E94A833025126
:1038D00093EEA92E92E0B92E8111A5CF011143C01C
:1038E0001C821B82662463948AE0582E85010F5F38
:1038F0001F4FC5010E94A83389831A82882309F4C7
:1039000092CF9FEF980F9330E8F58A83698292E017
:10391000A90EB11CC8010E94A8338B83882309F427
:1039200082CF8E010F5F1F4FF80120812223F1F219
:10393000213009F061C091818281913029F50E5FBB
:103940001F4F6AE070E0893311F460E570E00E9477
:10395000F10F20C090E080E00F3F110511F008F05A
:103960009BCFC80199CFA11454E0B50609F45BCFF1
:10397000C5010E94A833811101C001508FEFA81A20
:10398000B80AACCF5801CDCF923039F40E5F1F4F3B
:103990000E94080E0F5F1F4FC7CF933029F40E5FB0
:1039A0001F4F0E94CF0DF6CF943019F00F5F1F4FBD
:1039B000F1CF0E5F1F4F30E020E0B8016F5F7F4F07
:1039C000F80141818053990B8A30910550F02150C4
:1039D000310900F38FE99FE00197F1F700C0000083
:1039E000F6CF529EF001539EF00D11249C012E0F34
:1039F0003F1F842F8B01E1CFE22FF0E0E059FE4F13
:103A00007490822F86958695869590E0FC01E05A09
:103A1000FE4FE4902770F12C022E02C0F594E7943B
:103A20000A94E2F7E1E0EE22FF24FC01E05BFE4FA6
:103A3000C490D12C022E02C0D594C7940A94E2F708
:103A4000F1E0CF22DD24FC01E05CFE4F8490912C5C
:103A500002C0959487942A95E2F721E08222992466
:103A6000E114F10419F081EE0E94080EC114D10492
:103A700019F086EE0E94080E39E36AE070E07312D6
:103A800002C060E570E0872D0E94F10FCD2819F08B
:103A900086EE0E94CF0DEF2819F081EE0E94CF0D27
:103AA000892809F477CF6AE070E08CE250CF81E09A
:103AB0000E94C81B03C081E00E94BC1B0F900F90A6
:103AC0000F900F900F90DF91CF911F910F91FF906A
:103AD000EF90DF90CF90BF90AF909F908F907F90AE
:103AE0006F905F900C94B11B222309F49CC382E079
:103AF000DFCF0238FFE51F0709F469C008F04DC0A9
:103B0000053E110509F487C0F60192819111BFC1EC
:103B10008091700682720A3CFCE51F0709F4A6C179
:103B200008F0E3C0053C3CE5130709F48BC108F03D
:103B3000C7C0033C5CE5150709F465C108F07DC109
:103B4000023C1C4509F40EC1F60100811181992344
:103B500009F4B7C1C8010E94C510F82E682FC8012A
:103B60000E947C0DB8018F2D0E94B8100E94C90BD5
:103B7000182FB82EF60122814581342F32953F70DF
:103B8000892F82958F70E82EF12C8C3008F0D1C1EE
:103B9000F701E65FFB4C0C944D3303383FE5130708
:103BA00061F104384FE5140709F0AECF882309F41A
:103BB00066C080912102882309F43FC080912202CF
:103BC0000E94CF0D80EE0E94080E8AE242C0882338
:103BD00009F49ACF81EE0E94080E83EE0E94080E2F
:103BE0008FE40E94080E8FE40E94CF0D83EE0E94A6
:103BF000CF0D81EE0E94CF0D87CF882309F484CFAB
:103C000081EE0E94080E83EE0E94080E80E50E945D
:103C1000080E80E5E9CF80932402109323020093DD
:103C20002202882321F081E0809319036DCF109246
:103C300019036ACF80932102F0CF80912402882358
:103C400021F2809122020E94CF0D80EE0E94080E88
:103C50008CE40F900F900F900F900F90DF91CF9109
:103C60001F910F91FF90EF90DF90CF90BF90AF909A
:103C70009F908F907F906F905F900C94080E8AE2D7
:103C80000E94CF0D8CE40E94CF0D80EE0E94CF0DDC
:103C900080912102811105C080912402882309F4BA
:103CA000C2CD80912202D5CF882321F081E080937C
:103CB00018032ACF1092180327CF10921B0324CF8A
:103CC000073C2CE5120709F4C7C008F4C0C0083C43
:103CD0004CE5140709F4C5C0093C1C4509F034CF74
:103CE0004DE856E169E976E192C00F3CECE51E072C
:103CF00009F499CD40F50C3C2CE5120709F4C0C03D
:103D000008F4B9C00D3C4CE5140709F4BEC065E0E9
:103D100082E00E3C1C4509F017CF0F900F900F90DA
:103D20000F900F90DF91CF911F910F91FF90EF9027
:103D3000DF90CF90BF90AF909F908F907F906F90CB
:103D40005F900C94E61B063D8CE5180730F46BE0A1
:103D500086E0013D1C4508F366CD0D351D4509F48F
:103D600062CDF2CE80914B0480FF33C08E7F809372
:103D70004B0460914B0470914C0480914D049091E0
:103D80004E040E9418160E94B80A80916B0381604D
:103D900080936B03FFEF20E732E0F150204030408A
:103DA000E1F700C000000F900F900F900F900F9060
:103DB000DF91CF911F910F91FF90EF90DF90CF9007
:103DC000BF90AF909F908F907F906F905F900C947A
:103DD0004011816080934B0486950F900F900F9057
:103DE0000F900F90DF91CF911F910F91FF90EF9067
:103DF000DF90CF90BF90AF909F908F907F906F900B
:103E00005F900C94341B43ED5BE16CED7BE10F9014
:103E10000F900F900F900F90DF91CF911F910F9106
:103E2000FF90EF90DF90CF90BF90AF909F908F90DA
:103E30007F906F905F900C94B30A4CED5BE163ED63
:103E40007BE1E5CF4DEB56E166EC76E1E0CF46EC69
:103E500056E16DEB76E1DBCF45EA56E161EB76E1C9
:103E6000D6CF41EB56E165EA76E1D1CF49E956E19B
:103E70006DE876E1CCCF4FEC56E160EE76E1C7CF4E
:103E800040EE56E16FEC76E1C2CF81E0A6CF0E3D69
:103E90001C4509F059CE0F900F900F900F900F9086
:103EA000DF91CF911F910F91FF90EF90DF90CF9016
:103EB000BF90AF909F908F907F906F905F900C9489
:103EC0000A17C8010E94540DF82E4CCE092F0F700E
:103ED000907F11F00295007F812F2223C9F00023EB
:103EE00069F090E2910F983010F011110BC08091A1
:103EF0007006082B009370060E94330D812F0E94DC
:103F0000080E17C080917902082B00937902F4CF34
:103F10000E94CF0D002369F00095105E183010F05C
:103F2000B11027C0809170060823009370060E948C
:103F3000330D98E0E91AF108E4E0EE16F10408F018
:103F400072CC0E94C60F0F900F900F900F900F90A1
:103F5000DF91CF911F910F91FF90EF90DF90CF9065
:103F6000BF90AF909F908F907F906F905F900C94D8
:103F7000371B80917902082300937902D8CF892FCB
:103F80008F70907F903211F08295807FF1E0BF12A8
:103F90000CC0222329F0333060F60E94C50DC9CF32
:103FA000323038F60E94BA0DC4CF222341F03323B9
:103FB000A1F340FFA3CF4F70F6014583EECF33232B
:103FC00089F3193309F0F5C0FFEF27EE33E0F15024
:103FD00020403040E1F700C00000812F0E94CF0D4B
:103FE000A8CF892F86958695837061F0813009F07E
:103FF000A0CF812F9370211102C090E080E00E9439
:104000001A0A97CF812F9370211102C090E080E0AF
:104010000E94300A8ECF892F8370A1F5211189CF9C
:10402000812F829586958770880F880F412F4F705A
:10403000082E01C0440F0A94EAF7212F207114FFC3
:1040400007C02FE030E001C0220F8A95EAF72095E3
:10405000969596959370923081F0822F842B9330B1
:1040600030F480917A02913029F0242B82230E942F
:10407000B60D5FCF842B822BFACF242B80917A024E
:104080008227F5CF8695222311F0892F817088230E
:1040900009F44FCF812F829586958770880F880FFE
:1040A000412F4F70082E01C0440F0A94EAF7212FC8
:1040B000207114FF07C02FE030E001C0220F8A9565
:1040C000EAF72095969596959370923081F0822F1D
:1040D000842B933030F480918706913029F0242B83
:1040E00082230E94AB1B25CF842B822BFACF242B5B
:1040F000809187068227F5CF092F0F70222329F0A0
:10410000802F0E94C81B812F48CF812F0E94BA0D9B
:10411000802F0E94BC1B0DCF812FE1EF1E1789F16C
:10412000E11750F0F0EF1F17B9F02223B1F1311170
:10413000E5CE892F8F7129C042EF141749F153EF53
:104140001513F3CF80E0222361F29F7181E001C05B
:10415000880F9A95EAF7C5CF222379F0323008F01C
:10416000E8CE292F2F7181E090E001C0880F2A95B9
:10417000EAF7909187068927B4CF333008F0D9CE7B
:10418000F0CF892F8F71222321F20E94C81BD1CE3C
:10419000892F8F712223C9F3BCCF332379F0893360
:1041A00041F48FEF97EEE3E081509040E040E1F77B
:1041B00012CF8FE39CE90197F1F70DCF892F8F7113
:1041C000A8CF0031FFE51F0709F471CC01313FE5AD
:1041D000130709F489CC21110E940E0AF60182818D
:1041E000043E110509F460CD08F083CC003E1105B2
:1041F00009F45ACD013E110509F41CCD0C3211050C
:1042000009F082CC882309F458CD81E080931B0308
:104210001092710179CC80314FE5940709F44BCCB1
:1042200081319F45D9F682E047CC85E0DE011196C9
:1042300001900D928A95E1F7F601228189819A8198
:10424000211106CB0E94540D182F0ACB1F93CF9338
:10425000DF9380914502807FA9F4809142028823F8
:1042600089F080917702D09146026091400270916E
:104270004102A0914302B0914402C62FC72316E029
:10428000D81304C0DF91CF911F91089590E010974B
:1042900011F0CF3F19F401968770F2CF189F90016B
:1042A000199F300D1124F901E95BFD4F418147133E
:1042B000F2CF40814613EFCF42814111ECCF4381D1
:1042C00054814A1B5B0B403A510528F78091450207
:1042D0008F70806180934502F901E45BFD4F80811E
:1042E0008F708061808380E492E00E94F31BDF91F5
:1042F000CF911F910C944A0DAF92BF92CF92DF9253
:10430000EF92FF920F931F93CF93DF93CDB7DEB75A
:1043100061970FB6F894DEBF0FBECDBF8C0185E06C
:10432000F801DE011D9601900D928A95E1F7F801E2
:10433000E28080E4A82E82E0B82E60914302709162
:1043400044026115710509F432C190914002409117
:104350004102892F84238F3F09F429C120813181B3
:10436000C380D480F0904202F601E61BF70BFF20D9
:1043700009F4E8C080914502582F507FE03AF105DA
:1043800008F0ABC0511177C0FE2C431321C092132B
:104390001FC0E1101DC08F70806180934502C50170
:1043A0000E94F31B80914502F80185838F2D619651
:1043B0000FB6F894DEBF0FBECDBFDF91CF911F9136
:1043C0000F91FF90EF90DF90CF90BF90AF90089546
:1043D000CD2829F0822F83238F3F09F003C180E08D
:1043E000F82FF170DF2E80FF3CC080917702409162
:1043F000460256E0841315C02D873E878D859E8525
:104400000E94F410292F22952F702230F0F02430D2
:1044100018F59F70F1F0F8019581907FD1F4D12CBF
:104420001EC090E0589FF001599FF00D1124E95BE8
:10443000FD4F6181361306C06081261303C062817F
:10444000E6120FC001968770D5CF9F7011F08823B8
:1044500031F3805E883018F3C8010E94F31BFD2CF5
:10446000A5CFEE2009F4A2CF809145028160809310
:104470004502F12C9BCF431306C0921304C0F801F0
:10448000EE2009F479C0C8010E940011882309F1C7
:10449000EE20F9F080914502803270F020914002C8
:1044A0003091410238872F831986DB86CA868C8734
:1044B000CE0107960E94F31B86E0F801A0E4B2E06B
:1044C00001900D928A95E1F70E942621FF24F39432
:1044D0006DCFC8010E94F31BF9CF51110AC080E4CF
:1044E00092E00E94F31B86E0F50111928A95E9F7AC
:1044F000C0CF43130FC092130DC0E1100BC0F801E1
:104500008583C8010E94F31B86E0F50111928A950C
:10451000E9F74CCFC8010E9400118823D1F2EE20A8
:10452000C1F280914502803238F2209140023091F0
:1045300041023A8329831B82DD82CC828E83CE01A5
:104540000196B8CFE03AF105F8F6FE2CEE2009F21C
:1045500043131FC092131DC08091450280FD10C0FF
:10456000982F907F69F0F8018583903F31F0982F64
:10457000907F905F8F70892B8583C8010E94F31B09
:1045800086E0F801A0E4B2E001900D928A95E1F78F
:104590000DCFC8010E94001181118ECF809145027C
:1045A000816080934502C8010E94F31BFFCEEE207C
:1045B00009F48FCFC8010E940011F82E882309F456
:1045C00088CF86E0F801A0E4B2E001900D928A95D0
:1045D000E1F780914002909141020E94F4100E9404
:1045E0002621E4CE81E08E25FBCE1F93CF93DF936F
:1045F000CDB7DEB767970FB6F894DEBF0FBECDBF5D
:104600004B8B5C8B6D8B7E8B8F8B61111092790243
:104610001A8A198A85E0FE017396DE011D960190C3
:104620000D928A95E1F786E0FE013D96DE01179630
:1046300001900D928A95E1F7CE0107960E947C21A8
:10464000882389F016E080917702909146028913C1
:104650004BC067960FB6F894DEBF0FBECDBFDF919B
:10466000CF911F91089586E0FE013796DE011196E5
:1046700001900D928A95E1F78A859B85892B11F32C
:104680008F81988589238F3FE9F22091460230E09F
:10469000C90101968770992740917702481719063A
:1046A00081F4109270060E946912109246021092D4
:1046B000770286E0E0E4F2E0DF011D928A95E9F7F7
:1046C000C1CF96E0929FD001939FB00D1124A95BBA
:1046D000BD4FFE01319601900D929A95E1F78093BE
:1046E00046020E944A0DAECF819FC0011124895B12
:1046F0009D4F0E947C21882309F4ABCF80917702E3
:1047000090E0019687709927809377029CCF4F9213
:104710005F926F927F928F929F92AF92BF92FF9221
:104720000F931F93CF93DF93CDB7DEB764970FB688
:10473000F894DEBF0FBECDBF8E010F5F1F4F8AE022
:10474000D8011D928A95E9F728E5822E21E0922E64
:10475000B12CA12C66246394712C48E5442E41E0D1
:10476000542EF40181914F018F3F09F443C0F89416
:10477000E82FE295EF70F0E021A18F70A30102C055
:10478000440F551F8A95E2F7CA01922F982B91A3E7
:1047900092A18095892382A30E946D0B00C0E1E560
:1047A000F1E0F12C31E021912F3F09F47AC0A22FE2
:1047B000A295AF70B0E090968C9190E02F7002C0FF
:1047C000959587952A95E2F780FD6BC0832FF82A8F
:1047D000330F4E165F0639F7F401319780818F3F12
:1047E00011F00E946F0B50EA5A95F1F7F801EA0DAB
:1047F000FB1DF0828FEFA81AB80AA5E0AA16B10433
:1048000009F0AFCF4AE050E0B80180E093E00E94A9
:1048100092335C01892B41F08AE0F801A0E0B3E01B
:1048200001900D928A95E1F710910B03A114B10448
:10483000D1F181E080937D020E94C41A90937C02A2
:1048400080937B0280917B0290917C020E94B51A3A
:10485000069778F0A0E0B3E0E12FF0E0E75AFC4FD4
:1048600085E093E02D9121938A179B07D9F7109249
:104870007D0281E090E0AB28D1F064960FB6F89409
:10488000DEBF0FBECDBFDF91CF911F910F91FF9083
:10489000BF90AF909F908F907F906F905F904F9060
:1048A000089580E094CF80917D028111CBCF0E944A
:1048B000A30FF82EE0910B03882309F47AC15E015F
:1048C000B0E1AB0EB11C85E0D5011D928A95E9F7E8
:1048D0000E2F10E0075A1C4F8091F9028A3008F021
:1048E0001EC14CE259E1B501C8010E945F0F882347
:1048F00009F438C14CEE56E2B501C8010E945F0FC1
:10490000882309F42FC144E757E1B501C8010E948B
:104910005F0F882309F426C14CE458E1B501C801B2
:104920000E945F0F882309F41DC14CE258E1B501D4
:10493000C8010E945F0F882309F414C14AE058E1BE
:10494000B501C8010E945F0F882309F40BC11092C2
:10495000F90280910A0390E045E050E0B501875AE2
:104960009C4F0E94923321E02093C302892B09F0CF
:10497000ECC0F12C80908B02082C000C9908AA083E
:10498000BB0810910001212F30E081E090E0281752
:1049900039070CF0F8C0609187027091880280910D
:1049A000890290918A020E94F2092B013C01F5E6EE
:1049B0004F16510461047104FCF08091860290E06E
:1049C000019662E370E00E94F83280938602855778
:1049D0009D4FDC011C92812F113308F080E38F5F23
:1049E000809300010E940E0A6093870270938802F0
:1049F0008093890290938A02B2E08B169104A104FD
:104A0000B1040CF4CFC0A0E6BAEEA50194010E9457
:104A10005A334B015C01E4E61E9F90011124032EE2
:104A2000000C440B550B240D351D461D571DA5E0EC
:104A3000B0E00E945A339B01AC01C501B4010E9451
:104A40000C3349015A01F1EF8F169104A104B1040E
:104A500028F090EF892E912CA12CB12C609182022C
:104A60007091830280918402909185020E94F209E4
:104A70002B013C0125E6421651046104710484F0C7
:104A80000E940E0A609382027093830280938402D4
:104A9000909385028091200380938102809280020E
:104AA00010918102A0918002A11BBB0BA301920176
:104AB0000E94653324E630E040E050E00E942E334F
:104AC000120F109320038DEBA82E82E0B82E10E079
:104AD00000E0D5018D915D018823D1F08695F80124
:104AE00009F464C0E452FE4F808191819C878B87DA
:104AF0001D860E94C41A8160782F9F878E87F501DA
:104B0000319710824B855C856D858F850E94F522DB
:104B10000E5F1F4F04301105E1F68F2DAECE809150
:104B20007E0290917F020E94B51A843F914008F066
:104B3000D8CE8091C302882309F41BCF85E0F5010C
:104B400011928A95E9F71092C302A0910A03B0E08E
:104B5000A75ABC4F85E0FE01709601900D928A9590
:104B6000E1F708CF8091F9028F3F31F08F5F80939A
:104B7000F9028A3008F4EDCE0E94C41A90937F02A5
:104B800080937E02D6CFFC01E557FD4F4081042E75
:104B9000000C550B660B770B840E951EA61EB71ED8
:104BA0000196F5CE812C912C540158CFE852FE4F3E
:104BB0009BCFF0E0E75AFC4FF89485E0A3EDB2E01C
:104BC00001900D928A95E1F765E070E083ED92E047
:104BD0000E949D0A8093D2020E946D0BF894E0918E
:104BE0001603F0E0ED5EFC4F80818B878093D90245
:104BF00061E070E0CE010B960E949D0A8093D8027E
:104C00000E946D0BF8948090DA029090DB02A090E5
:104C1000DC02B090DD028091BF029091C002A091B1
:104C2000C102B091C20288169906AA06BB06D1F04D
:104C30008092BF029092C002A092C102B092C202C2
:104C40000E94A30F81110EC00E940E0A861A970AB5
:104C5000A80AB90A8092FA029092FB02A092FC0282
:104C6000B092FD020E946D0BF8948091E5028823BA
:104C7000A9F184FF04C09091E60290936C0380FF39
:104C80000DC08091DE0280FF3DC090914B04916089
:104C900090934B0460E086950E94F41A8091E5029F
:104CA00081FF09C020E04091E1026091E002809123
:104CB000DF020E942A168091E50282FF06C08091E1
:104CC000E402882311F10E94D91A8091E50283FF42
:104CD00003C081E0809366031092E5020E946D0B91
:104CE000F8948091E702809320030E946D0BF89462
:104CF0008091E802882361F00E94D80E0E946D0B1B
:104D000080E0BBCD0E945212C9CF0E94B80ADDCF0D
:104D10000E94BD0EF3CFEF92FF920F931F93CF939C
:104D2000DF9300D000D00F92CDB7DEB7F62E082F5C
:104D300010E0C801880F991F662361F184529E4FCD
:104D4000FC01808191819A838983EE24E394EB8234
:104D50000E94C41A81609D838C83F801E354FD4F47
:104D6000EF248F2D880FE82AE082809187060E9429
:104D70007C0E8230F9F4FF2081F00F900F900F909D
:104D80000F900F90DF91CF911F910F91FF90EF90B7
:104D90000C94991688529E4FD3CF0F900F900F907E
:104DA0000F900F90DF91CF911F910F91FF90EF9097
:104DB0000C948D1649815A816B817C818D810F9075
:104DC0000F900F900F900F90DF91CF911F910F9147
:104DD000FF90EF900C94F522CF92DF92EF92FF922A
:104DE0000F931F93CF93DF930F92CDB7DEB7EE24CF
:104DF000E394F12C09ED12E09E012F5F3F4F4EEC42
:104E000052E063E082E00E948A18082F882321F193
:104E1000C0900D038C2D90E09C012D5E3C4F7901DC
:104E20001981F9018081181BD12E80E00AC0DA9423
:104E3000F70180818F5F808360E08C2D0E948B263C
:104E4000802F1D14A4F3912F17FD90E0191B111151
:104E50000EC081110E94310D802F0F90DF91CF91F4
:104E60001F910F91FF90EF90DF90CF9008951F5FFB
:104E7000F70180818150808361E08C2D0E948B2618
:104E8000802FE5CF1F921FB61F9211248F939F93FF
:104E9000AF93BF9380916706811113C0809168061C
:104EA00090916906A0916A06B0916B064196A11D8A
:104EB000B11D8093680690936906A0936A06B0932B
:104EC0006B06BF91AF919F918F911F901FBE1F9056
:104ED0001895CDB7DEB7E7970FB6F894DEBF0FBED3
:104EE000CDBF84B7877F84BF0FB6F894A895809113
:104EF0006000886180936000109260000FBE80E8BF
:104F000090E00FB6F89480936100909361000FBE1B
:104F100085B7806885BF85B7806885BF8BE69BE0D5
:104F200090931702809316020E9462080E942D0936
:104F30008091E20084608093E200789480917D0605
:104F40008823A1F01091E9001F709091EC00892F47
:104F5000817090FD80E8182B1092E9008091E800A4
:104F600083FD0E9472121F701093E90082E084BDDD
:104F700093E095BD9AEF97BD80936E001092FA0270
:104F80001092FB021092FC021092FD020E94271167
:104F9000811102C00E9483100E94A30F80936201BE
:104FA00080916201882309F4C9C010927B0185E2D7
:104FB00080937C010E94A30F81110E941731809180
:104FC000620181112FC0FE01359686E0DF011D923E
:104FD0008A95E9F786E6898387E98A8386EC8B835D
:104FE00084E38C8385E38D833497A8E5B1E0CE011B
:104FF0000B9621912D938E179F07D9F787E0E1E853
:10500000F1E0DE01919601900D928A95E1F7FE01A3
:10501000B196A1E5B1E0CE01889621912D938E172E
:105020009F07D9F78091620195E0811190E09093FC
:105030000B0385E0891B80930A0308E511E08DE5E9
:10504000E82E81E0F82EF80181918F018F3F11F059
:105050000E946F0BE016F106B1F701E511E0B8E52B
:10506000EB2EB1E0FB2ED8018D918D018F3F11F019
:105070000E946F0BE016F106B1F78AE0E9E5F3E074
:10508000DF01282F1D922A95E9F7E0E0F3E0DF0128
:105090001D928A95E9F70E946919811102C00E9448
:1050A0000A1782E090E00E94A83380934E0384E0C8
:1050B00090E00E94A833182F82E290E00E94A8336B
:1050C000982F812F9093FF028093FE020E948723E6
:1050D000EFE7FBEB3197F1F700C000000E94872358
:1050E0008091590380FF2EC06FEF7FEF90E080E04A
:1050F0000E94DA3381E08093E00080E28093D80060
:105100001092C9008FE19EE40197F1F700C0000002
:1051100087E090EBDC018093880690938906A0934A
:105120008A06B0938B0688E19CE00FB6F894A895A8
:10513000809360000FBE90936000FFCF85E2809364
:105140007B0136CF83E090E00E94A8330E94B60D29
:10515000809187060E945A1B0E94A30F811102C0F2
:105160000E941A3183E08093490380E280935004C7
:105170000E94AF2F6DE070E083E092E00E948D0E00
:10518000892BE9F58091490363E070E081FD71C2EC
:1051900080E092E00E948D0E892B89F56DE070E031
:1051A00080EF91E00E948D0E892B49F50E940E0A36
:1051B0006058774C8E4F9F4F60935B0670935C06F0
:1051C00080935D0690935E06E9E5F4E080E092E06E
:1051D000DF019C011D9221503040E1F7F0935A0607
:1051E000E09359068FEF9FEF9093580480935704F4
:1051F00081E08093600680935F0610924A0380915D
:105200000C03811138C00E946919811104C00E94E9
:105210000A170E94F11688E090E00E94B033609374
:105220004B0470934C0480934D0490934E048091F2
:105230006B03836080936B036E7F71F40E94F116A1
:1052400088E090E00E94B03360934B0470934C046C
:1052500080934D0490934E040E94BF0A0E94B80AA6
:1052600080914B0480FF04C060E086950E94F41A90
:1052700081E080930C0380916201811106C084EF6C
:105280008093700185EF80936F0180917001E82F0A
:10529000E295EF70F0E091A18F7061E070E0AB01FA
:1052A00001C0440F8A95EAF7242F2095292321A3D2
:1052B00092A1942B92A390916F01E92FE295EF7048
:1052C000F0E021A19F70AB0102C0440F551F9A95D9
:1052D000E2F7CA01942F9095922391A392A1892B72
:1052E00082A38FE891E00197F1F700C000002091C0
:1052F0007001E22FE295EF70F0E080A190E02F7056
:1053000002C0959587952A95E2F7817090916F017B
:10531000E92FE295EF70F0E020A130E09F7002C02D
:10532000359527959A95E2F792E020FF90E0892B3A
:10533000809317039091620181E098279093160360
:10534000891B80930D0381E00E94AB1B83E691E0F3
:105350009093640680936306FAE08F2E912CA12C23
:10536000B12CA4E62A2E312C412C512C80917D06A3
:10537000FF24F39400E112E1853009F4CAC10E94D0
:1053800087238EA781110E940E0AE9E56E2EE3E0C5
:105390007E2EEFE4F3E0D30110E000E0C02EED90AC
:1053A00081918E1509F4D9C18E25D12CFF24F39457
:1053B0009F2D982309F4CCC10E94A30F882399F054
:1053C000D9A2CAA2EF2081E009F480E08BA30E9459
:1053D000C41A8160782F9DA38CA349A15AA16BA107
:1053E0008DA10E94F522F801E15BFC4F8081F82637
:1053F000F08280916A03882309F464C08091690374
:10540000E0914B04E695E81BE0936503823009F0D8
:10541000BBC1F0E0ED5EFD4FE4910E2F10E071E2B4
:10542000E72E72E1F72E80916603882361F01092D7
:1054300066030E94D01A90936403809363031092D2
:105440006803109267030E94D01AE0916303F09101
:1054500064039C012E1B3F0B2F3F3F4798F5209183
:1054600012032223B1F01092120320911003309105
:105470001103821B930B8F3F9F4758F4205D3A48DE
:10548000309311032093100380916B038860809305
:105490006B03C0906703D09068030E0F1F1F10931B
:1054A00064030093630383E693E0F7010995809119
:1054B000670390916803892B29F4CD2819F081E0C6
:1054C0008093120380911703E82FEE0FEE0F809167
:1054D0007001A82FA295AF70B0E090962C9130E0AB
:1054E0008F7002C0359527958A95E2F72170332792
:1054F00080916F01A82FA295AF70B0E090964C916B
:1055000050E08F7002C0559547958A95E2F7CA0121
:105510008170992740FF02C082E090E0822B8E2BA1
:1055200080931703109116038F70E82FF0E0EE516F
:10553000FE4F808190911503890F8093150384306D
:105540000CF437C1E12FF0E0ED5EFC4F80818F5FFE
:10555000808360E0812F0E948B26F1E0FDA780917F
:1055600015038D3F6CF4E12FF0E0ED5EFC4F808180
:105570008150808361E0812F0E948B2621E02DA73E
:1055800080911503082E000C990B64E070E00E94D6
:10559000F832809315033DA531110E94310D8091A1
:1055A0006006882351F180914B0390914C030E9437
:1055B000B51AC29708F0FFC02091570430915804E3
:1055C0002115310509F032C280915F068823A9F0C8
:1055D0000E940E0A00915B0610915C0620915D0608
:1055E00030915E06601B710B820B930B6F3F7F4FF8
:1055F0008F4F9F4710F40E94BD0E4EA5411102C06F
:105600005DA551110E94D80E0E94C60F90914D03C6
:10561000891731F00E94C60F80934D030E94371BFB
:1056200080917D06843009F0A1CE83E08093E9006B
:105630008091E80082FF9ACE8091E80090E085FF9B
:1056400006C00E948108882309F4CBC291E08091B2
:10565000E8008B778093E800992309F487CEE981ED
:10566000E150E33108F02FC3F0E0EA5EFB4C0C940C
:105670004D338DEF91E08ECD80917D06843009F41D
:1056800038C080E00E94371B0E94B80A80910F0347
:10569000811109C0F0920F0380914B0481708093B7
:1056A0000E030E9452120E94BD0E1092670648E13E
:1056B00050E080E40FB6F894A895409360000FBEC8
:1056C0008093600083B7817F846083BF83B78160EC
:1056D00083BF7894889583B78E7F83BF0FB6F89485
:1056E000A8958091600088618093600010926000AE
:1056F0000FBE80917C06882361F00E948723E9E534
:10570000F3E0819181110AC4A3E6B3E0AE17BF07AD
:10571000C1F780917D06853009F4AECF10927006F6
:105720000E9469120E94C60F0E94371B10920F033D
:1057300080910E03882349F080914B04816080930F
:105740004B0460E086950E94F41A0E94D91A17CE85
:10575000D394FF0C27E0D2122BCE0F5F1F4F0A30DD
:10576000110509F01BCE8FEF88A789A71AA60E9402
:10577000C41A8160782F9CA78BA748A559A56AA554
:105780008CA50E94F52235CE00ED17E05DEEE52EEA
:1057900059E0F52E863009F046CEE695F0E0E05F60
:1057A000FD4FE4910E2F10E068ECE62E61E1F62E3D
:1057B0003ACE1DA6D4CE0E94C41A90934C03809377
:1057C0004B0360E080E00E94860A8091200390E015
:1057D00090932803809327030E94C60F809326038B
:1057E0000E94A30F882309F4B5C062E080E00E9404
:1057F000860A60E088E891E00E94FC1566E080E09F
:105800000E94860A60E08EE891E00E94FC1567E045
:1058100080E00E94860A609126036695617083E9A4
:1058200091E00E94FC1568E080E00E94860A609189
:105830002603617088E991E00E94FC1569E080E030
:105840000E94860A6091260362FB662760F98CE954
:1058500091E00E94FC1560911C0370911D038091E2
:105860001E0390911F030E94F209693C7105810596
:105870009105F0F10E940E0A60931C0370931D03C2
:1058800080931E0390931F0380911B03811104C01A
:1058900080917101811132C06FE080E00E94860A20
:1058A00060E081EA91E00E94FC156CE080E00E94DB
:1058B000860A81E08093710180911A0390E001963D
:1058C0008170992780931A0321E030E0281B390B5F
:1058D00040E6429FC001439F900D1124209119037F
:1058E0002223D1F060E670E0895E9A4F0E94460A5A
:1058F00080916006882309F467CE5ECE6CE080E07C
:105900000E94860A60E081EA91E00E94FC156DE049
:1059100080E00E94860AD0CF20911803222329F02C
:1059200060E670E0895A9B4FE1CF209127033091C8
:10593000280360E670E02B3031051CF489569C4F3B
:10594000D5CF293231051CF489529D4FCFCF895EC6
:105950009D4FCCCF60E870E08DED95E00E94460A47
:105960006AE080E00E94860AE7EDF5E084918F010D
:10597000811152C08091200390917201981305C04B
:1059800090912503903209F441C08093720190E216
:1059900090932503C82ED12CF12CE12C10922403D6
:1059A000C701B601A50194010E940C33605D60330C
:1059B00031F0C114D104E104F10409F460E2609310
:1059C000230360E2FAE0CF16D104E104F10468F0A9
:1059D000C701B601A50194010E940C33CA01B901A7
:1059E000A50194010E940C33605D6093220324E6BC
:1059F000C216D104E104F104B8F0C701B601A20156
:105A000091010E940C33205D2093210360E081E22C
:105A100093E00E94FC156CCF60E00E943D150F5F83
:105A20001F4FF8018491A4CF20E2EECF80914A036A
:105A300061E070E08111C8CDC82ED12C7B01082E09
:105A400002C0EE0CFF1C0A94E2F7A9014E215F216F
:105A5000452B09F447C09091490390FD45C08295BC
:105A6000880F807680937501960136952795369537
:105A7000279520937801815E8093760110927901B9
:105A800024E630E047E050E063E771E088E70E94F9
:105A90005E30892B09F098CD35E0CC0CDD1C3A95B1
:105AA000E1F78091490380FD2DC0A601475A5B4F65
:105AB00004E610E020E230E060E488E70E948530F0
:105AC000892B09F081CD0E94D80EE094F09480914A
:105AD0005704909158048E219F21909358048093ED
